{
	"data": {
		"bytecode": {
			"linkReferences": {},
			"object": "608060405234801561001057600080fd5b50610345806100206000396000f3fe608060405234801561001057600080fd5b506004361061002b5760003560e01c8063fc735e9914610030575b600080fd5b61003861004e565b60405161004591906101bf565b60405180910390f35b6000807f4f53ecaf441f00846941c8cbeadb00537f31cf38882f5edbb5667114c120584060001b905060006040518060800160405280604181526020016102cf6041913990506000738b6ff17e6a61879661296cba916bec85f664906290506100b783836100bf565b935050505090565b60008060008060418551146100da576000935050505061018c565b6020850151925060408501519150606085015160001a9050601b8160ff16101561010e57601b8161010b919061021f565b90505b601b8160ff16141580156101265750601c8160ff1614155b15610137576000935050505061018c565b6001868285856040516000815260200160405260405161015a94939291906101da565b6020604051602081039080840390855afa15801561017c573d6000803e3d6000fd5b5050506020604051035193505050505b92915050565b61019b81610256565b82525050565b6101aa81610268565b82525050565b6101b981610292565b82525050565b60006020820190506101d46000830184610192565b92915050565b60006080820190506101ef60008301876101a1565b6101fc60208301866101b0565b61020960408301856101a1565b61021660608301846101a1565b95945050505050565b600061022a82610292565b915061023583610292565b92508260ff0382111561024b5761024a61029f565b5b828201905092915050565b600061026182610272565b9050919050565b6000819050919050565b600073ffffffffffffffffffffffffffffffffffffffff82169050919050565b600060ff82169050919050565b7f4e487b7100000000000000000000000000000000000000000000000000000000600052601160045260246000fdfe53e1364b5f74e659787c04038df68c69b8203b8a4ae8c414695bc64988a253f34a92024f3c82c4e566888842364abf1a5c5f058587b739a28a8ac21cd8cec6ac01a26469706673582212200e93e24ebe5b1a52943294203deef8e5766e8ee26027b48ab603fa6a88206f5164736f6c63430008070033",
			"opcodes": "PUSH1 0x80 PUSH1 0x40 MSTORE CALLVALUE DUP1 ISZERO PUSH2 0x10 JUMPI PUSH1 0x0 DUP1 REVERT JUMPDEST POP PUSH2 0x345 DUP1 PUSH2 0x20 PUSH1 0x0 CODECOPY PUSH1 0x0 RETURN INVALID PUSH1 0x80 PUSH1 0x40 MSTORE CALLVALUE DUP1 ISZERO PUSH2 0x10 JUMPI PUSH1 0x0 DUP1 REVERT JUMPDEST POP PUSH1 0x4 CALLDATASIZE LT PUSH2 0x2B JUMPI PUSH1 0x0 CALLDATALOAD PUSH1 0xE0 SHR DUP1 PUSH4 0xFC735E99 EQ PUSH2 0x30 JUMPI JUMPDEST PUSH1 0x0 DUP1 REVERT JUMPDEST PUSH2 0x38 PUSH2 0x4E JUMP JUMPDEST PUSH1 0x40 MLOAD PUSH2 0x45 SWAP2 SWAP1 PUSH2 0x1BF JUMP JUMPDEST PUSH1 0x40 MLOAD DUP1 SWAP2 SUB SWAP1 RETURN JUMPDEST PUSH1 0x0 DUP1 PUSH32 0x4F53ECAF441F00846941C8CBEADB00537F31CF38882F5EDBB5667114C1205840 PUSH1 0x0 SHL SWAP1 POP PUSH1 0x0 PUSH1 0x40 MLOAD DUP1 PUSH1 0x80 ADD PUSH1 0x40 MSTORE DUP1 PUSH1 0x41 DUP2 MSTORE PUSH1 0x20 ADD PUSH2 0x2CF PUSH1 0x41 SWAP2 CODECOPY SWAP1 POP PUSH1 0x0 PUSH20 0x8B6FF17E6A61879661296CBA916BEC85F6649062 SWAP1 POP PUSH2 0xB7 DUP4 DUP4 PUSH2 0xBF JUMP JUMPDEST SWAP4 POP POP POP POP SWAP1 JUMP JUMPDEST PUSH1 0x0 DUP1 PUSH1 0x0 DUP1 PUSH1 0x41 DUP6 MLOAD EQ PUSH2 0xDA JUMPI PUSH1 0x0 SWAP4 POP POP POP POP PUSH2 0x18C JUMP JUMPDEST PUSH1 0x20 DUP6 ADD MLOAD SWAP3 POP PUSH1 0x40 DUP6 ADD MLOAD SWAP2 POP PUSH1 0x60 DUP6 ADD MLOAD PUSH1 0x0 BYTE SWAP1 POP PUSH1 0x1B DUP2 PUSH1 0xFF AND LT ISZERO PUSH2 0x10E JUMPI PUSH1 0x1B DUP2 PUSH2 0x10B SWAP2 SWAP1 PUSH2 0x21F JUMP JUMPDEST SWAP1 POP JUMPDEST PUSH1 0x1B DUP2 PUSH1 0xFF AND EQ ISZERO DUP1 ISZERO PUSH2 0x126 JUMPI POP PUSH1 0x1C DUP2 PUSH1 0xFF AND EQ ISZERO JUMPDEST ISZERO PUSH2 0x137 JUMPI PUSH1 0x0 SWAP4 POP POP POP POP PUSH2 0x18C JUMP JUMPDEST PUSH1 0x1 DUP7 DUP3 DUP6 DUP6 PUSH1 0x40 MLOAD PUSH1 0x0 DUP2 MSTORE PUSH1 0x20 ADD PUSH1 0x40 MSTORE PUSH1 0x40 MLOAD PUSH2 0x15A SWAP5 SWAP4 SWAP3 SWAP2 SWAP1 PUSH2 0x1DA JUMP JUMPDEST PUSH1 0x20 PUSH1 0x40 MLOAD PUSH1 0x20 DUP2 SUB SWAP1 DUP1 DUP5 SUB SWAP1 DUP6 GAS STATICCALL ISZERO DUP1 ISZERO PUSH2 0x17C JUMPI RETURNDATASIZE PUSH1 0x0 DUP1 RETURNDATACOPY RETURNDATASIZE PUSH1 0x0 REVERT JUMPDEST POP POP POP PUSH1 0x20 PUSH1 0x40 MLOAD SUB MLOAD SWAP4 POP POP POP POP JUMPDEST SWAP3 SWAP2 POP POP JUMP JUMPDEST PUSH2 0x19B DUP2 PUSH2 0x256 JUMP JUMPDEST DUP3 MSTORE POP POP JUMP JUMPDEST PUSH2 0x1AA DUP2 PUSH2 0x268 JUMP JUMPDEST DUP3 MSTORE POP POP JUMP JUMPDEST PUSH2 0x1B9 DUP2 PUSH2 0x292 JUMP JUMPDEST DUP3 MSTORE POP POP JUMP JUMPDEST PUSH1 0x0 PUSH1 0x20 DUP3 ADD SWAP1 POP PUSH2 0x1D4 PUSH1 0x0 DUP4 ADD DUP5 PUSH2 0x192 JUMP JUMPDEST SWAP3 SWAP2 POP POP JUMP JUMPDEST PUSH1 0x0 PUSH1 0x80 DUP3 ADD SWAP1 POP PUSH2 0x1EF PUSH1 0x0 DUP4 ADD DUP8 PUSH2 0x1A1 JUMP JUMPDEST PUSH2 0x1FC PUSH1 0x20 DUP4 ADD DUP7 PUSH2 0x1B0 JUMP JUMPDEST PUSH2 0x209 PUSH1 0x40 DUP4 ADD DUP6 PUSH2 0x1A1 JUMP JUMPDEST PUSH2 0x216 PUSH1 0x60 DUP4 ADD DUP5 PUSH2 0x1A1 JUMP JUMPDEST SWAP6 SWAP5 POP POP POP POP POP JUMP JUMPDEST PUSH1 0x0 PUSH2 0x22A DUP3 PUSH2 0x292 JUMP JUMPDEST SWAP2 POP PUSH2 0x235 DUP4 PUSH2 0x292 JUMP JUMPDEST SWAP3 POP DUP3 PUSH1 0xFF SUB DUP3 GT ISZERO PUSH2 0x24B JUMPI PUSH2 0x24A PUSH2 0x29F JUMP JUMPDEST JUMPDEST DUP3 DUP3 ADD SWAP1 POP SWAP3 SWAP2 POP POP JUMP JUMPDEST PUSH1 0x0 PUSH2 0x261 DUP3 PUSH2 0x272 JUMP JUMPDEST SWAP1 POP SWAP2 SWAP1 POP JUMP JUMPDEST PUSH1 0x0 DUP2 SWAP1 POP SWAP2 SWAP1 POP JUMP JUMPDEST PUSH1 0x0 PUSH20 0xFFFFFFFFFFFFFFFFFFFFFFFFFFFFFFFFFFFFFFFF DUP3 AND SWAP1 POP SWAP2 SWAP1 POP JUMP JUMPDEST PUSH1 0x0 PUSH1 0xFF DUP3 AND SWAP1 POP SWAP2 SWAP1 POP JUMP JUMPDEST PUSH32 0x4E487B7100000000000000000000000000000000000000000000000000000000 PUSH1 0x0 MSTORE PUSH1 0x11 PUSH1 0x4 MSTORE PUSH1 0x24 PUSH1 0x0 REVERT INVALID MSTORE8 0xE1 CALLDATASIZE 0x4B 0x5F PUSH21 0xE659787C04038DF68C69B8203B8A4AE8C414695BC6 0x49 DUP9 LOG2 MSTORE8 RETURN 0x4A SWAP3 MUL 0x4F EXTCODECOPY DUP3 0xC4 0xE5 PUSH7 0x888842364ABF1A 0x5C 0x5F SDIV DUP6 DUP8 0xB7 CODECOPY LOG2 DUP11 DUP11 0xC2 SHR 0xD8 0xCE 0xC6 0xAC ADD LOG2 PUSH5 0x6970667358 0x22 SLT KECCAK256 0xE SWAP4 0xE2 0x4E 0xBE JUMPDEST BYTE MSTORE SWAP5 ORIGIN SWAP5 KECCAK256 RETURNDATASIZE 0xEE 0xF8 0xE5 PUSH23 0x6E8EE26027B48AB603FA6A88206F5164736F6C63430008 SMOD STOP CALLER "
		},
		"gasEstimates": {
			"creation": {
				"codeDepositCost": "167400",
				"executionCost": "214",
				"totalCost": "167614"
			},
			"external": {
				"verify()": "infinite"
			},
			"internal": {
				"ethMessageHash(string memory)": "infinite",
				"recover(bytes32,bytes memory)": "infinite"
			}
		},
		"methodIdentifiers": {
			"verify()": "fc735e99"
		}
	},
	"abi": [
		{
			"inputs": [],
			"name": "verify",
			"outputs": [
				{
					"internalType": "address",
					"name": "",
					"type": "address"
				}
			],
			"stateMutability": "pure",
			"type": "function"
		}
	]
}