{
	"data": {
		"bytecode": {
			"linkReferences": {},
			"object": "608060405234801561001057600080fd5b50610fe1806100206000396000f3fe608060405234801561001057600080fd5b50600436106100625760003560e01c806303a507be146100675780635727dc5c146100855780637a308a4c146100a3578063997da8d4146100c1578063bc9e2bcf146100df578063eeeac01e14610110575b600080fd5b61006f61012e565b60405161007c9190610d92565b60405180910390f35b61008d610152565b60405161009a9190610d92565b60405180910390f35b6100ab610157565b6040516100b89190610d92565b60405180910390f35b6100c961017b565b6040516100d69190610d92565b60405180910390f35b6100f960048036038101906100f49190610cd0565b610180565b604051610107929190610dad565b60405180910390f35b6101186101fa565b6040516101259190610d92565b60405180910390f35b7f79be667ef9dcbbac55a06295ce870b07029bfcdb2dce28d959f2815b16f8179881565b600781565b7f483ada7726a3c4655da4fbfc0e1108a8fd17b448a68554199c47d08ffb10d4b881565b600081565b6000806101f1837f79be667ef9dcbbac55a06295ce870b07029bfcdb2dce28d959f2815b16f817987f483ada7726a3c4655da4fbfc0e1108a8fd17b448a68554199c47d08ffb10d4b860007ffffffffffffffffffffffffffffffffffffffffffffffffffffffffefffffc2f61021e565b91509150915091565b7ffffffffffffffffffffffffffffffffffffffffffffffffffffffffefffffc2f81565b60008060008060006102358a8a8a60018b8b610258565b925092509250610247838383896102f8565b945094505050509550959350505050565b600080600080891415610273578787879250925092506102ec565b60008990506000806000600190505b600084146102de57600060018516146102b1576102a48383838f8f8f8e61036f565b8093508194508295505050505b6002846102be9190610de7565b93506102cd8c8c8c8c8c6109ee565b809c50819d50829e50505050610282565b828282965096509650505050505b96509650969350505050565b60008060006103078585610bad565b90506000848061031a57610319610edf565b5b8283099050600085806103305761032f610edf565b5b828a0990506000868061034657610345610edf565b5b878061035557610354610edf565b5b8486098a0990508181955095505050505094509492505050565b6000806000808a1480156103835750600089145b15610396578686869250925092506109e1565b6000871480156103a65750600086145b156103b9578989899250925092506109e1565b6103c1610c99565b84806103d0576103cf610edf565b5b898a09816000600481106103e7576103e6610f0e565b5b60200201818152505084806103ff576103fe610edf565b5b8160006004811061041357610412610f0e565b5b60200201518a098160016004811061042e5761042d610f0e565b5b602002018181525050848061044657610445610edf565b5b8687098160026004811061045d5761045c610f0e565b5b602002018181525050848061047557610474610edf565b5b8160026004811061048957610488610f0e565b5b60200201518709816003600481106104a4576104a3610f0e565b5b602002018181525050604051806080016040528086806104c7576104c6610edf565b5b836002600481106104db576104da610f0e565b5b60200201518e09815260200186806104f6576104f5610edf565b5b8360036004811061050a57610509610f0e565b5b60200201518d098152602001868061052557610524610edf565b5b8360006004811061053957610538610f0e565b5b60200201518b098152602001868061055457610553610edf565b5b8360016004811061056857610567610f0e565b5b60200201518a0981525090508060026004811061058857610587610f0e565b5b6020020151816000600481106105a1576105a0610f0e565b5b60200201511415806105e35750806003600481106105c2576105c1610f0e565b5b6020020151816001600481106105db576105da610f0e565b5b602002015114155b610622576040517f08c379a000000000000000000000000000000000000000000000000000000000815260040161061990610d52565b60405180910390fd5b61062a610c99565b858061063957610638610edf565b5b8260006004811061064d5761064c610f0e565b5b60200201518761065d9190610e72565b8360026004811061067157610670610f0e565b5b6020020151088160006004811061068b5761068a610f0e565b5b60200201818152505085806106a3576106a2610edf565b5b826001600481106106b7576106b6610f0e565b5b6020020151876106c79190610e72565b836003600481106106db576106da610f0e565b5b602002015108816001600481106106f5576106f4610f0e565b5b602002018181525050858061070d5761070c610edf565b5b8160006004811061072157610720610f0e565b5b60200201518260006004811061073a57610739610f0e565b5b6020020151098160026004811061075457610753610f0e565b5b602002018181525050858061076c5761076b610edf565b5b816000600481106107805761077f610f0e565b5b60200201518260026004811061079957610798610f0e565b5b602002015109816003600481106107b3576107b2610f0e565b5b602002018181525050600086806107cd576107cc610edf565b5b826003600481106107e1576107e0610f0e565b5b6020020151886107f19190610e72565b8880610800576107ff610edf565b5b8460016004811061081457610813610f0e565b5b60200201518560016004811061082d5761082c610f0e565b5b602002015109089050868061084557610844610edf565b5b878061085457610853610edf565b5b888061086357610862610edf565b5b8460026004811061087757610876610f0e565b5b6020020151866000600481106108905761088f610f0e565b5b602002015109600209886108a49190610e72565b82089050600087806108b9576108b8610edf565b5b88806108c8576108c7610edf565b5b838a6108d49190610e72565b8a806108e3576108e2610edf565b5b866002600481106108f7576108f6610f0e565b5b6020020151886000600481106109105761090f610f0e565b5b602002015109088460016004811061092b5761092a610f0e565b5b6020020151099050878061094257610941610edf565b5b888061095157610950610edf565b5b8460036004811061096557610964610f0e565b5b60200201518660016004811061097e5761097d610f0e565b5b6020020151098961098f9190610e72565b82089050600088806109a4576109a3610edf565b5b89806109b3576109b2610edf565b5b8b8f09856000600481106109ca576109c9610f0e565b5b602002015109905082828297509750975050505050505b9750975097945050505050565b600080600080861415610a0957878787925092509250610ba2565b60008480610a1a57610a19610edf565b5b898a09905060008580610a3057610a2f610edf565b5b898a09905060008680610a4657610a45610edf565b5b898a09905060008780610a5c57610a5b610edf565b5b8880610a6b57610a6a610edf565b5b848e09600409905060008880610a8457610a83610edf565b5b8980610a9357610a92610edf565b5b8a80610aa257610aa1610edf565b5b8586098c098a80610ab657610ab5610edf565b5b876003090890508880610acc57610acb610edf565b5b8980610adb57610ada610edf565b5b8384088a610ae99190610e72565b8a80610af857610af7610edf565b5b8384090894508880610b0d57610b0c610edf565b5b8980610b1c57610b1b610edf565b5b8a80610b2b57610b2a610edf565b5b8687096008098a610b3c9190610e72565b8a80610b4b57610b4a610edf565b5b8b80610b5a57610b59610edf565b5b888d610b669190610e72565b860884090893508880610b7c57610b7b610edf565b5b8980610b8b57610b8a610edf565b5b8c8e09600209925084848497509750975050505050505b955095509592505050565b6000808314158015610bbf5750818314155b8015610bcc575060008214155b610c0b576040517f08c379a0000000000000000000000000000000000000000000000000000000008152600401610c0290610d72565b60405180910390fd5b60008060019050600084905060005b60008714610c8c578682610c2e9190610de7565b9050828680610c4057610c3f610edf565b5b8780610c4f57610c4e610edf565b5b85840988610c5d9190610e72565b86088094508195505050868782610c749190610e18565b83610c7f9190610e72565b8098508193505050610c1a565b8394505050505092915050565b6040518060800160405280600490602082028036833780820191505090505090565b600081359050610cca81610f94565b92915050565b600060208284031215610ce657610ce5610f3d565b5b6000610cf484828501610cbb565b91505092915050565b6000610d0a601e83610dd6565b9150610d1582610f42565b602082019050919050565b6000610d2d600e83610dd6565b9150610d3882610f6b565b602082019050919050565b610d4c81610ea6565b82525050565b60006020820190508181036000830152610d6b81610cfd565b9050919050565b60006020820190508181036000830152610d8b81610d20565b9050919050565b6000602082019050610da76000830184610d43565b92915050565b6000604082019050610dc26000830185610d43565b610dcf6020830184610d43565b9392505050565b600082825260208201905092915050565b6000610df282610ea6565b9150610dfd83610ea6565b925082610e0d57610e0c610edf565b5b828204905092915050565b6000610e2382610ea6565b9150610e2e83610ea6565b9250817fffffffffffffffffffffffffffffffffffffffffffffffffffffffffffffffff0483118215151615610e6757610e66610eb0565b5b828202905092915050565b6000610e7d82610ea6565b9150610e8883610ea6565b925082821015610e9b57610e9a610eb0565b5b828203905092915050565b6000819050919050565b7f4e487b7100000000000000000000000000000000000000000000000000000000600052601160045260246000fd5b7f4e487b7100000000000000000000000000000000000000000000000000000000600052601260045260246000fd5b7f4e487b7100000000000000000000000000000000000000000000000000000000600052603260045260246000fd5b600080fd5b7f557365206a6163446f75626c652066756e6374696f6e20696e73746561640000600082015250565b7f496e76616c6964206e756d626572000000000000000000000000000000000000600082015250565b610f9d81610ea6565b8114610fa857600080fd5b5056fea26469706673582212207f48718648db3d3bc3c7c7baab5ff53bf8a4b29c5a9fef3368b46b92d61979d564736f6c63430008070033",
			"opcodes": "PUSH1 0x80 PUSH1 0x40 MSTORE CALLVALUE DUP1 ISZERO PUSH2 0x10 JUMPI PUSH1 0x0 DUP1 REVERT JUMPDEST POP PUSH2 0xFE1 DUP1 PUSH2 0x20 PUSH1 0x0 CODECOPY PUSH1 0x0 RETURN INVALID PUSH1 0x80 PUSH1 0x40 MSTORE CALLVALUE DUP1 ISZERO PUSH2 0x10 JUMPI PUSH1 0x0 DUP1 REVERT JUMPDEST POP PUSH1 0x4 CALLDATASIZE LT PUSH2 0x62 JUMPI PUSH1 0x0 CALLDATALOAD PUSH1 0xE0 SHR DUP1 PUSH4 0x3A507BE EQ PUSH2 0x67 JUMPI DUP1 PUSH4 0x5727DC5C EQ PUSH2 0x85 JUMPI DUP1 PUSH4 0x7A308A4C EQ PUSH2 0xA3 JUMPI DUP1 PUSH4 0x997DA8D4 EQ PUSH2 0xC1 JUMPI DUP1 PUSH4 0xBC9E2BCF EQ PUSH2 0xDF JUMPI DUP1 PUSH4 0xEEEAC01E EQ PUSH2 0x110 JUMPI JUMPDEST PUSH1 0x0 DUP1 REVERT JUMPDEST PUSH2 0x6F PUSH2 0x12E JUMP JUMPDEST PUSH1 0x40 MLOAD PUSH2 0x7C SWAP2 SWAP1 PUSH2 0xD92 JUMP JUMPDEST PUSH1 0x40 MLOAD DUP1 SWAP2 SUB SWAP1 RETURN JUMPDEST PUSH2 0x8D PUSH2 0x152 JUMP JUMPDEST PUSH1 0x40 MLOAD PUSH2 0x9A SWAP2 SWAP1 PUSH2 0xD92 JUMP JUMPDEST PUSH1 0x40 MLOAD DUP1 SWAP2 SUB SWAP1 RETURN JUMPDEST PUSH2 0xAB PUSH2 0x157 JUMP JUMPDEST PUSH1 0x40 MLOAD PUSH2 0xB8 SWAP2 SWAP1 PUSH2 0xD92 JUMP JUMPDEST PUSH1 0x40 MLOAD DUP1 SWAP2 SUB SWAP1 RETURN JUMPDEST PUSH2 0xC9 PUSH2 0x17B JUMP JUMPDEST PUSH1 0x40 MLOAD PUSH2 0xD6 SWAP2 SWAP1 PUSH2 0xD92 JUMP JUMPDEST PUSH1 0x40 MLOAD DUP1 SWAP2 SUB SWAP1 RETURN JUMPDEST PUSH2 0xF9 PUSH1 0x4 DUP1 CALLDATASIZE SUB DUP2 ADD SWAP1 PUSH2 0xF4 SWAP2 SWAP1 PUSH2 0xCD0 JUMP JUMPDEST PUSH2 0x180 JUMP JUMPDEST PUSH1 0x40 MLOAD PUSH2 0x107 SWAP3 SWAP2 SWAP1 PUSH2 0xDAD JUMP JUMPDEST PUSH1 0x40 MLOAD DUP1 SWAP2 SUB SWAP1 RETURN JUMPDEST PUSH2 0x118 PUSH2 0x1FA JUMP JUMPDEST PUSH1 0x40 MLOAD PUSH2 0x125 SWAP2 SWAP1 PUSH2 0xD92 JUMP JUMPDEST PUSH1 0x40 MLOAD DUP1 SWAP2 SUB SWAP1 RETURN JUMPDEST PUSH32 0x79BE667EF9DCBBAC55A06295CE870B07029BFCDB2DCE28D959F2815B16F81798 DUP2 JUMP JUMPDEST PUSH1 0x7 DUP2 JUMP JUMPDEST PUSH32 0x483ADA7726A3C4655DA4FBFC0E1108A8FD17B448A68554199C47D08FFB10D4B8 DUP2 JUMP JUMPDEST PUSH1 0x0 DUP2 JUMP JUMPDEST PUSH1 0x0 DUP1 PUSH2 0x1F1 DUP4 PUSH32 0x79BE667EF9DCBBAC55A06295CE870B07029BFCDB2DCE28D959F2815B16F81798 PUSH32 0x483ADA7726A3C4655DA4FBFC0E1108A8FD17B448A68554199C47D08FFB10D4B8 PUSH1 0x0 PUSH32 0xFFFFFFFFFFFFFFFFFFFFFFFFFFFFFFFFFFFFFFFFFFFFFFFFFFFFFFFEFFFFFC2F PUSH2 0x21E JUMP JUMPDEST SWAP2 POP SWAP2 POP SWAP2 POP SWAP2 JUMP JUMPDEST PUSH32 0xFFFFFFFFFFFFFFFFFFFFFFFFFFFFFFFFFFFFFFFFFFFFFFFFFFFFFFFEFFFFFC2F DUP2 JUMP JUMPDEST PUSH1 0x0 DUP1 PUSH1 0x0 DUP1 PUSH1 0x0 PUSH2 0x235 DUP11 DUP11 DUP11 PUSH1 0x1 DUP12 DUP12 PUSH2 0x258 JUMP JUMPDEST SWAP3 POP SWAP3 POP SWAP3 POP PUSH2 0x247 DUP4 DUP4 DUP4 DUP10 PUSH2 0x2F8 JUMP JUMPDEST SWAP5 POP SWAP5 POP POP POP POP SWAP6 POP SWAP6 SWAP4 POP POP POP POP JUMP JUMPDEST PUSH1 0x0 DUP1 PUSH1 0x0 DUP1 DUP10 EQ ISZERO PUSH2 0x273 JUMPI DUP8 DUP8 DUP8 SWAP3 POP SWAP3 POP SWAP3 POP PUSH2 0x2EC JUMP JUMPDEST PUSH1 0x0 DUP10 SWAP1 POP PUSH1 0x0 DUP1 PUSH1 0x0 PUSH1 0x1 SWAP1 POP JUMPDEST PUSH1 0x0 DUP5 EQ PUSH2 0x2DE JUMPI PUSH1 0x0 PUSH1 0x1 DUP6 AND EQ PUSH2 0x2B1 JUMPI PUSH2 0x2A4 DUP4 DUP4 DUP4 DUP16 DUP16 DUP16 DUP15 PUSH2 0x36F JUMP JUMPDEST DUP1 SWAP4 POP DUP2 SWAP5 POP DUP3 SWAP6 POP POP POP POP JUMPDEST PUSH1 0x2 DUP5 PUSH2 0x2BE SWAP2 SWAP1 PUSH2 0xDE7 JUMP JUMPDEST SWAP4 POP PUSH2 0x2CD DUP13 DUP13 DUP13 DUP13 DUP13 PUSH2 0x9EE JUMP JUMPDEST DUP1 SWAP13 POP DUP2 SWAP14 POP DUP3 SWAP15 POP POP POP POP PUSH2 0x282 JUMP JUMPDEST DUP3 DUP3 DUP3 SWAP7 POP SWAP7 POP SWAP7 POP POP POP POP POP JUMPDEST SWAP7 POP SWAP7 POP SWAP7 SWAP4 POP POP POP POP JUMP JUMPDEST PUSH1 0x0 DUP1 PUSH1 0x0 PUSH2 0x307 DUP6 DUP6 PUSH2 0xBAD JUMP JUMPDEST SWAP1 POP PUSH1 0x0 DUP5 DUP1 PUSH2 0x31A JUMPI PUSH2 0x319 PUSH2 0xEDF JUMP JUMPDEST JUMPDEST DUP3 DUP4 MULMOD SWAP1 POP PUSH1 0x0 DUP6 DUP1 PUSH2 0x330 JUMPI PUSH2 0x32F PUSH2 0xEDF JUMP JUMPDEST JUMPDEST DUP3 DUP11 MULMOD SWAP1 POP PUSH1 0x0 DUP7 DUP1 PUSH2 0x346 JUMPI PUSH2 0x345 PUSH2 0xEDF JUMP JUMPDEST JUMPDEST DUP8 DUP1 PUSH2 0x355 JUMPI PUSH2 0x354 PUSH2 0xEDF JUMP JUMPDEST JUMPDEST DUP5 DUP7 MULMOD DUP11 MULMOD SWAP1 POP DUP2 DUP2 SWAP6 POP SWAP6 POP POP POP POP POP SWAP5 POP SWAP5 SWAP3 POP POP POP JUMP JUMPDEST PUSH1 0x0 DUP1 PUSH1 0x0 DUP1 DUP11 EQ DUP1 ISZERO PUSH2 0x383 JUMPI POP PUSH1 0x0 DUP10 EQ JUMPDEST ISZERO PUSH2 0x396 JUMPI DUP7 DUP7 DUP7 SWAP3 POP SWAP3 POP SWAP3 POP PUSH2 0x9E1 JUMP JUMPDEST PUSH1 0x0 DUP8 EQ DUP1 ISZERO PUSH2 0x3A6 JUMPI POP PUSH1 0x0 DUP7 EQ JUMPDEST ISZERO PUSH2 0x3B9 JUMPI DUP10 DUP10 DUP10 SWAP3 POP SWAP3 POP SWAP3 POP PUSH2 0x9E1 JUMP JUMPDEST PUSH2 0x3C1 PUSH2 0xC99 JUMP JUMPDEST DUP5 DUP1 PUSH2 0x3D0 JUMPI PUSH2 0x3CF PUSH2 0xEDF JUMP JUMPDEST JUMPDEST DUP10 DUP11 MULMOD DUP2 PUSH1 0x0 PUSH1 0x4 DUP2 LT PUSH2 0x3E7 JUMPI PUSH2 0x3E6 PUSH2 0xF0E JUMP JUMPDEST JUMPDEST PUSH1 0x20 MUL ADD DUP2 DUP2 MSTORE POP POP DUP5 DUP1 PUSH2 0x3FF JUMPI PUSH2 0x3FE PUSH2 0xEDF JUMP JUMPDEST JUMPDEST DUP2 PUSH1 0x0 PUSH1 0x4 DUP2 LT PUSH2 0x413 JUMPI PUSH2 0x412 PUSH2 0xF0E JUMP JUMPDEST JUMPDEST PUSH1 0x20 MUL ADD MLOAD DUP11 MULMOD DUP2 PUSH1 0x1 PUSH1 0x4 DUP2 LT PUSH2 0x42E JUMPI PUSH2 0x42D PUSH2 0xF0E JUMP JUMPDEST JUMPDEST PUSH1 0x20 MUL ADD DUP2 DUP2 MSTORE POP POP DUP5 DUP1 PUSH2 0x446 JUMPI PUSH2 0x445 PUSH2 0xEDF JUMP JUMPDEST JUMPDEST DUP7 DUP8 MULMOD DUP2 PUSH1 0x2 PUSH1 0x4 DUP2 LT PUSH2 0x45D JUMPI PUSH2 0x45C PUSH2 0xF0E JUMP JUMPDEST JUMPDEST PUSH1 0x20 MUL ADD DUP2 DUP2 MSTORE POP POP DUP5 DUP1 PUSH2 0x475 JUMPI PUSH2 0x474 PUSH2 0xEDF JUMP JUMPDEST JUMPDEST DUP2 PUSH1 0x2 PUSH1 0x4 DUP2 LT PUSH2 0x489 JUMPI PUSH2 0x488 PUSH2 0xF0E JUMP JUMPDEST JUMPDEST PUSH1 0x20 MUL ADD MLOAD DUP8 MULMOD DUP2 PUSH1 0x3 PUSH1 0x4 DUP2 LT PUSH2 0x4A4 JUMPI PUSH2 0x4A3 PUSH2 0xF0E JUMP JUMPDEST JUMPDEST PUSH1 0x20 MUL ADD DUP2 DUP2 MSTORE POP POP PUSH1 0x40 MLOAD DUP1 PUSH1 0x80 ADD PUSH1 0x40 MSTORE DUP1 DUP7 DUP1 PUSH2 0x4C7 JUMPI PUSH2 0x4C6 PUSH2 0xEDF JUMP JUMPDEST JUMPDEST DUP4 PUSH1 0x2 PUSH1 0x4 DUP2 LT PUSH2 0x4DB JUMPI PUSH2 0x4DA PUSH2 0xF0E JUMP JUMPDEST JUMPDEST PUSH1 0x20 MUL ADD MLOAD DUP15 MULMOD DUP2 MSTORE PUSH1 0x20 ADD DUP7 DUP1 PUSH2 0x4F6 JUMPI PUSH2 0x4F5 PUSH2 0xEDF JUMP JUMPDEST JUMPDEST DUP4 PUSH1 0x3 PUSH1 0x4 DUP2 LT PUSH2 0x50A JUMPI PUSH2 0x509 PUSH2 0xF0E JUMP JUMPDEST JUMPDEST PUSH1 0x20 MUL ADD MLOAD DUP14 MULMOD DUP2 MSTORE PUSH1 0x20 ADD DUP7 DUP1 PUSH2 0x525 JUMPI PUSH2 0x524 PUSH2 0xEDF JUMP JUMPDEST JUMPDEST DUP4 PUSH1 0x0 PUSH1 0x4 DUP2 LT PUSH2 0x539 JUMPI PUSH2 0x538 PUSH2 0xF0E JUMP JUMPDEST JUMPDEST PUSH1 0x20 MUL ADD MLOAD DUP12 MULMOD DUP2 MSTORE PUSH1 0x20 ADD DUP7 DUP1 PUSH2 0x554 JUMPI PUSH2 0x553 PUSH2 0xEDF JUMP JUMPDEST JUMPDEST DUP4 PUSH1 0x1 PUSH1 0x4 DUP2 LT PUSH2 0x568 JUMPI PUSH2 0x567 PUSH2 0xF0E JUMP JUMPDEST JUMPDEST PUSH1 0x20 MUL ADD MLOAD DUP11 MULMOD DUP2 MSTORE POP SWAP1 POP DUP1 PUSH1 0x2 PUSH1 0x4 DUP2 LT PUSH2 0x588 JUMPI PUSH2 0x587 PUSH2 0xF0E JUMP JUMPDEST JUMPDEST PUSH1 0x20 MUL ADD MLOAD DUP2 PUSH1 0x0 PUSH1 0x4 DUP2 LT PUSH2 0x5A1 JUMPI PUSH2 0x5A0 PUSH2 0xF0E JUMP JUMPDEST JUMPDEST PUSH1 0x20 MUL ADD MLOAD EQ ISZERO DUP1 PUSH2 0x5E3 JUMPI POP DUP1 PUSH1 0x3 PUSH1 0x4 DUP2 LT PUSH2 0x5C2 JUMPI PUSH2 0x5C1 PUSH2 0xF0E JUMP JUMPDEST JUMPDEST PUSH1 0x20 MUL ADD MLOAD DUP2 PUSH1 0x1 PUSH1 0x4 DUP2 LT PUSH2 0x5DB JUMPI PUSH2 0x5DA PUSH2 0xF0E JUMP JUMPDEST JUMPDEST PUSH1 0x20 MUL ADD MLOAD EQ ISZERO JUMPDEST PUSH2 0x622 JUMPI PUSH1 0x40 MLOAD PUSH32 0x8C379A000000000000000000000000000000000000000000000000000000000 DUP2 MSTORE PUSH1 0x4 ADD PUSH2 0x619 SWAP1 PUSH2 0xD52 JUMP JUMPDEST PUSH1 0x40 MLOAD DUP1 SWAP2 SUB SWAP1 REVERT JUMPDEST PUSH2 0x62A PUSH2 0xC99 JUMP JUMPDEST DUP6 DUP1 PUSH2 0x639 JUMPI PUSH2 0x638 PUSH2 0xEDF JUMP JUMPDEST JUMPDEST DUP3 PUSH1 0x0 PUSH1 0x4 DUP2 LT PUSH2 0x64D JUMPI PUSH2 0x64C PUSH2 0xF0E JUMP JUMPDEST JUMPDEST PUSH1 0x20 MUL ADD MLOAD DUP8 PUSH2 0x65D SWAP2 SWAP1 PUSH2 0xE72 JUMP JUMPDEST DUP4 PUSH1 0x2 PUSH1 0x4 DUP2 LT PUSH2 0x671 JUMPI PUSH2 0x670 PUSH2 0xF0E JUMP JUMPDEST JUMPDEST PUSH1 0x20 MUL ADD MLOAD ADDMOD DUP2 PUSH1 0x0 PUSH1 0x4 DUP2 LT PUSH2 0x68B JUMPI PUSH2 0x68A PUSH2 0xF0E JUMP JUMPDEST JUMPDEST PUSH1 0x20 MUL ADD DUP2 DUP2 MSTORE POP POP DUP6 DUP1 PUSH2 0x6A3 JUMPI PUSH2 0x6A2 PUSH2 0xEDF JUMP JUMPDEST JUMPDEST DUP3 PUSH1 0x1 PUSH1 0x4 DUP2 LT PUSH2 0x6B7 JUMPI PUSH2 0x6B6 PUSH2 0xF0E JUMP JUMPDEST JUMPDEST PUSH1 0x20 MUL ADD MLOAD DUP8 PUSH2 0x6C7 SWAP2 SWAP1 PUSH2 0xE72 JUMP JUMPDEST DUP4 PUSH1 0x3 PUSH1 0x4 DUP2 LT PUSH2 0x6DB JUMPI PUSH2 0x6DA PUSH2 0xF0E JUMP JUMPDEST JUMPDEST PUSH1 0x20 MUL ADD MLOAD ADDMOD DUP2 PUSH1 0x1 PUSH1 0x4 DUP2 LT PUSH2 0x6F5 JUMPI PUSH2 0x6F4 PUSH2 0xF0E JUMP JUMPDEST JUMPDEST PUSH1 0x20 MUL ADD DUP2 DUP2 MSTORE POP POP DUP6 DUP1 PUSH2 0x70D JUMPI PUSH2 0x70C PUSH2 0xEDF JUMP JUMPDEST JUMPDEST DUP2 PUSH1 0x0 PUSH1 0x4 DUP2 LT PUSH2 0x721 JUMPI PUSH2 0x720 PUSH2 0xF0E JUMP JUMPDEST JUMPDEST PUSH1 0x20 MUL ADD MLOAD DUP3 PUSH1 0x0 PUSH1 0x4 DUP2 LT PUSH2 0x73A JUMPI PUSH2 0x739 PUSH2 0xF0E JUMP JUMPDEST JUMPDEST PUSH1 0x20 MUL ADD MLOAD MULMOD DUP2 PUSH1 0x2 PUSH1 0x4 DUP2 LT PUSH2 0x754 JUMPI PUSH2 0x753 PUSH2 0xF0E JUMP JUMPDEST JUMPDEST PUSH1 0x20 MUL ADD DUP2 DUP2 MSTORE POP POP DUP6 DUP1 PUSH2 0x76C JUMPI PUSH2 0x76B PUSH2 0xEDF JUMP JUMPDEST JUMPDEST DUP2 PUSH1 0x0 PUSH1 0x4 DUP2 LT PUSH2 0x780 JUMPI PUSH2 0x77F PUSH2 0xF0E JUMP JUMPDEST JUMPDEST PUSH1 0x20 MUL ADD MLOAD DUP3 PUSH1 0x2 PUSH1 0x4 DUP2 LT PUSH2 0x799 JUMPI PUSH2 0x798 PUSH2 0xF0E JUMP JUMPDEST JUMPDEST PUSH1 0x20 MUL ADD MLOAD MULMOD DUP2 PUSH1 0x3 PUSH1 0x4 DUP2 LT PUSH2 0x7B3 JUMPI PUSH2 0x7B2 PUSH2 0xF0E JUMP JUMPDEST JUMPDEST PUSH1 0x20 MUL ADD DUP2 DUP2 MSTORE POP POP PUSH1 0x0 DUP7 DUP1 PUSH2 0x7CD JUMPI PUSH2 0x7CC PUSH2 0xEDF JUMP JUMPDEST JUMPDEST DUP3 PUSH1 0x3 PUSH1 0x4 DUP2 LT PUSH2 0x7E1 JUMPI PUSH2 0x7E0 PUSH2 0xF0E JUMP JUMPDEST JUMPDEST PUSH1 0x20 MUL ADD MLOAD DUP9 PUSH2 0x7F1 SWAP2 SWAP1 PUSH2 0xE72 JUMP JUMPDEST DUP9 DUP1 PUSH2 0x800 JUMPI PUSH2 0x7FF PUSH2 0xEDF JUMP JUMPDEST JUMPDEST DUP5 PUSH1 0x1 PUSH1 0x4 DUP2 LT PUSH2 0x814 JUMPI PUSH2 0x813 PUSH2 0xF0E JUMP JUMPDEST JUMPDEST PUSH1 0x20 MUL ADD MLOAD DUP6 PUSH1 0x1 PUSH1 0x4 DUP2 LT PUSH2 0x82D JUMPI PUSH2 0x82C PUSH2 0xF0E JUMP JUMPDEST JUMPDEST PUSH1 0x20 MUL ADD MLOAD MULMOD ADDMOD SWAP1 POP DUP7 DUP1 PUSH2 0x845 JUMPI PUSH2 0x844 PUSH2 0xEDF JUMP JUMPDEST JUMPDEST DUP8 DUP1 PUSH2 0x854 JUMPI PUSH2 0x853 PUSH2 0xEDF JUMP JUMPDEST JUMPDEST DUP9 DUP1 PUSH2 0x863 JUMPI PUSH2 0x862 PUSH2 0xEDF JUMP JUMPDEST JUMPDEST DUP5 PUSH1 0x2 PUSH1 0x4 DUP2 LT PUSH2 0x877 JUMPI PUSH2 0x876 PUSH2 0xF0E JUMP JUMPDEST JUMPDEST PUSH1 0x20 MUL ADD MLOAD DUP7 PUSH1 0x0 PUSH1 0x4 DUP2 LT PUSH2 0x890 JUMPI PUSH2 0x88F PUSH2 0xF0E JUMP JUMPDEST JUMPDEST PUSH1 0x20 MUL ADD MLOAD MULMOD PUSH1 0x2 MULMOD DUP9 PUSH2 0x8A4 SWAP2 SWAP1 PUSH2 0xE72 JUMP JUMPDEST DUP3 ADDMOD SWAP1 POP PUSH1 0x0 DUP8 DUP1 PUSH2 0x8B9 JUMPI PUSH2 0x8B8 PUSH2 0xEDF JUMP JUMPDEST JUMPDEST DUP9 DUP1 PUSH2 0x8C8 JUMPI PUSH2 0x8C7 PUSH2 0xEDF JUMP JUMPDEST JUMPDEST DUP4 DUP11 PUSH2 0x8D4 SWAP2 SWAP1 PUSH2 0xE72 JUMP JUMPDEST DUP11 DUP1 PUSH2 0x8E3 JUMPI PUSH2 0x8E2 PUSH2 0xEDF JUMP JUMPDEST JUMPDEST DUP7 PUSH1 0x2 PUSH1 0x4 DUP2 LT PUSH2 0x8F7 JUMPI PUSH2 0x8F6 PUSH2 0xF0E JUMP JUMPDEST JUMPDEST PUSH1 0x20 MUL ADD MLOAD DUP9 PUSH1 0x0 PUSH1 0x4 DUP2 LT PUSH2 0x910 JUMPI PUSH2 0x90F PUSH2 0xF0E JUMP JUMPDEST JUMPDEST PUSH1 0x20 MUL ADD MLOAD MULMOD ADDMOD DUP5 PUSH1 0x1 PUSH1 0x4 DUP2 LT PUSH2 0x92B JUMPI PUSH2 0x92A PUSH2 0xF0E JUMP JUMPDEST JUMPDEST PUSH1 0x20 MUL ADD MLOAD MULMOD SWAP1 POP DUP8 DUP1 PUSH2 0x942 JUMPI PUSH2 0x941 PUSH2 0xEDF JUMP JUMPDEST JUMPDEST DUP9 DUP1 PUSH2 0x951 JUMPI PUSH2 0x950 PUSH2 0xEDF JUMP JUMPDEST JUMPDEST DUP5 PUSH1 0x3 PUSH1 0x4 DUP2 LT PUSH2 0x965 JUMPI PUSH2 0x964 PUSH2 0xF0E JUMP JUMPDEST JUMPDEST PUSH1 0x20 MUL ADD MLOAD DUP7 PUSH1 0x1 PUSH1 0x4 DUP2 LT PUSH2 0x97E JUMPI PUSH2 0x97D PUSH2 0xF0E JUMP JUMPDEST JUMPDEST PUSH1 0x20 MUL ADD MLOAD MULMOD DUP10 PUSH2 0x98F SWAP2 SWAP1 PUSH2 0xE72 JUMP JUMPDEST DUP3 ADDMOD SWAP1 POP PUSH1 0x0 DUP9 DUP1 PUSH2 0x9A4 JUMPI PUSH2 0x9A3 PUSH2 0xEDF JUMP JUMPDEST JUMPDEST DUP10 DUP1 PUSH2 0x9B3 JUMPI PUSH2 0x9B2 PUSH2 0xEDF JUMP JUMPDEST JUMPDEST DUP12 DUP16 MULMOD DUP6 PUSH1 0x0 PUSH1 0x4 DUP2 LT PUSH2 0x9CA JUMPI PUSH2 0x9C9 PUSH2 0xF0E JUMP JUMPDEST JUMPDEST PUSH1 0x20 MUL ADD MLOAD MULMOD SWAP1 POP DUP3 DUP3 DUP3 SWAP8 POP SWAP8 POP SWAP8 POP POP POP POP POP POP JUMPDEST SWAP8 POP SWAP8 POP SWAP8 SWAP5 POP POP POP POP POP JUMP JUMPDEST PUSH1 0x0 DUP1 PUSH1 0x0 DUP1 DUP7 EQ ISZERO PUSH2 0xA09 JUMPI DUP8 DUP8 DUP8 SWAP3 POP SWAP3 POP SWAP3 POP PUSH2 0xBA2 JUMP JUMPDEST PUSH1 0x0 DUP5 DUP1 PUSH2 0xA1A JUMPI PUSH2 0xA19 PUSH2 0xEDF JUMP JUMPDEST JUMPDEST DUP10 DUP11 MULMOD SWAP1 POP PUSH1 0x0 DUP6 DUP1 PUSH2 0xA30 JUMPI PUSH2 0xA2F PUSH2 0xEDF JUMP JUMPDEST JUMPDEST DUP10 DUP11 MULMOD SWAP1 POP PUSH1 0x0 DUP7 DUP1 PUSH2 0xA46 JUMPI PUSH2 0xA45 PUSH2 0xEDF JUMP JUMPDEST JUMPDEST DUP10 DUP11 MULMOD SWAP1 POP PUSH1 0x0 DUP8 DUP1 PUSH2 0xA5C JUMPI PUSH2 0xA5B PUSH2 0xEDF JUMP JUMPDEST JUMPDEST DUP9 DUP1 PUSH2 0xA6B JUMPI PUSH2 0xA6A PUSH2 0xEDF JUMP JUMPDEST JUMPDEST DUP5 DUP15 MULMOD PUSH1 0x4 MULMOD SWAP1 POP PUSH1 0x0 DUP9 DUP1 PUSH2 0xA84 JUMPI PUSH2 0xA83 PUSH2 0xEDF JUMP JUMPDEST JUMPDEST DUP10 DUP1 PUSH2 0xA93 JUMPI PUSH2 0xA92 PUSH2 0xEDF JUMP JUMPDEST JUMPDEST DUP11 DUP1 PUSH2 0xAA2 JUMPI PUSH2 0xAA1 PUSH2 0xEDF JUMP JUMPDEST JUMPDEST DUP6 DUP7 MULMOD DUP13 MULMOD DUP11 DUP1 PUSH2 0xAB6 JUMPI PUSH2 0xAB5 PUSH2 0xEDF JUMP JUMPDEST JUMPDEST DUP8 PUSH1 0x3 MULMOD ADDMOD SWAP1 POP DUP9 DUP1 PUSH2 0xACC JUMPI PUSH2 0xACB PUSH2 0xEDF JUMP JUMPDEST JUMPDEST DUP10 DUP1 PUSH2 0xADB JUMPI PUSH2 0xADA PUSH2 0xEDF JUMP JUMPDEST JUMPDEST DUP4 DUP5 ADDMOD DUP11 PUSH2 0xAE9 SWAP2 SWAP1 PUSH2 0xE72 JUMP JUMPDEST DUP11 DUP1 PUSH2 0xAF8 JUMPI PUSH2 0xAF7 PUSH2 0xEDF JUMP JUMPDEST JUMPDEST DUP4 DUP5 MULMOD ADDMOD SWAP5 POP DUP9 DUP1 PUSH2 0xB0D JUMPI PUSH2 0xB0C PUSH2 0xEDF JUMP JUMPDEST JUMPDEST DUP10 DUP1 PUSH2 0xB1C JUMPI PUSH2 0xB1B PUSH2 0xEDF JUMP JUMPDEST JUMPDEST DUP11 DUP1 PUSH2 0xB2B JUMPI PUSH2 0xB2A PUSH2 0xEDF JUMP JUMPDEST JUMPDEST DUP7 DUP8 MULMOD PUSH1 0x8 MULMOD DUP11 PUSH2 0xB3C SWAP2 SWAP1 PUSH2 0xE72 JUMP JUMPDEST DUP11 DUP1 PUSH2 0xB4B JUMPI PUSH2 0xB4A PUSH2 0xEDF JUMP JUMPDEST JUMPDEST DUP12 DUP1 PUSH2 0xB5A JUMPI PUSH2 0xB59 PUSH2 0xEDF JUMP JUMPDEST JUMPDEST DUP9 DUP14 PUSH2 0xB66 SWAP2 SWAP1 PUSH2 0xE72 JUMP JUMPDEST DUP7 ADDMOD DUP5 MULMOD ADDMOD SWAP4 POP DUP9 DUP1 PUSH2 0xB7C JUMPI PUSH2 0xB7B PUSH2 0xEDF JUMP JUMPDEST JUMPDEST DUP10 DUP1 PUSH2 0xB8B JUMPI PUSH2 0xB8A PUSH2 0xEDF JUMP JUMPDEST JUMPDEST DUP13 DUP15 MULMOD PUSH1 0x2 MULMOD SWAP3 POP DUP5 DUP5 DUP5 SWAP8 POP SWAP8 POP SWAP8 POP POP POP POP POP POP JUMPDEST SWAP6 POP SWAP6 POP SWAP6 SWAP3 POP POP POP JUMP JUMPDEST PUSH1 0x0 DUP1 DUP4 EQ ISZERO DUP1 ISZERO PUSH2 0xBBF JUMPI POP DUP2 DUP4 EQ ISZERO JUMPDEST DUP1 ISZERO PUSH2 0xBCC JUMPI POP PUSH1 0x0 DUP3 EQ ISZERO JUMPDEST PUSH2 0xC0B JUMPI PUSH1 0x40 MLOAD PUSH32 0x8C379A000000000000000000000000000000000000000000000000000000000 DUP2 MSTORE PUSH1 0x4 ADD PUSH2 0xC02 SWAP1 PUSH2 0xD72 JUMP JUMPDEST PUSH1 0x40 MLOAD DUP1 SWAP2 SUB SWAP1 REVERT JUMPDEST PUSH1 0x0 DUP1 PUSH1 0x1 SWAP1 POP PUSH1 0x0 DUP5 SWAP1 POP PUSH1 0x0 JUMPDEST PUSH1 0x0 DUP8 EQ PUSH2 0xC8C JUMPI DUP7 DUP3 PUSH2 0xC2E SWAP2 SWAP1 PUSH2 0xDE7 JUMP JUMPDEST SWAP1 POP DUP3 DUP7 DUP1 PUSH2 0xC40 JUMPI PUSH2 0xC3F PUSH2 0xEDF JUMP JUMPDEST JUMPDEST DUP8 DUP1 PUSH2 0xC4F JUMPI PUSH2 0xC4E PUSH2 0xEDF JUMP JUMPDEST JUMPDEST DUP6 DUP5 MULMOD DUP9 PUSH2 0xC5D SWAP2 SWAP1 PUSH2 0xE72 JUMP JUMPDEST DUP7 ADDMOD DUP1 SWAP5 POP DUP2 SWAP6 POP POP POP DUP7 DUP8 DUP3 PUSH2 0xC74 SWAP2 SWAP1 PUSH2 0xE18 JUMP JUMPDEST DUP4 PUSH2 0xC7F SWAP2 SWAP1 PUSH2 0xE72 JUMP JUMPDEST DUP1 SWAP9 POP DUP2 SWAP4 POP POP POP PUSH2 0xC1A JUMP JUMPDEST DUP4 SWAP5 POP POP POP POP POP SWAP3 SWAP2 POP POP JUMP JUMPDEST PUSH1 0x40 MLOAD DUP1 PUSH1 0x80 ADD PUSH1 0x40 MSTORE DUP1 PUSH1 0x4 SWAP1 PUSH1 0x20 DUP3 MUL DUP1 CALLDATASIZE DUP4 CALLDATACOPY DUP1 DUP3 ADD SWAP2 POP POP SWAP1 POP POP SWAP1 JUMP JUMPDEST PUSH1 0x0 DUP2 CALLDATALOAD SWAP1 POP PUSH2 0xCCA DUP2 PUSH2 0xF94 JUMP JUMPDEST SWAP3 SWAP2 POP POP JUMP JUMPDEST PUSH1 0x0 PUSH1 0x20 DUP3 DUP5 SUB SLT ISZERO PUSH2 0xCE6 JUMPI PUSH2 0xCE5 PUSH2 0xF3D JUMP JUMPDEST JUMPDEST PUSH1 0x0 PUSH2 0xCF4 DUP5 DUP3 DUP6 ADD PUSH2 0xCBB JUMP JUMPDEST SWAP2 POP POP SWAP3 SWAP2 POP POP JUMP JUMPDEST PUSH1 0x0 PUSH2 0xD0A PUSH1 0x1E DUP4 PUSH2 0xDD6 JUMP JUMPDEST SWAP2 POP PUSH2 0xD15 DUP3 PUSH2 0xF42 JUMP JUMPDEST PUSH1 0x20 DUP3 ADD SWAP1 POP SWAP2 SWAP1 POP JUMP JUMPDEST PUSH1 0x0 PUSH2 0xD2D PUSH1 0xE DUP4 PUSH2 0xDD6 JUMP JUMPDEST SWAP2 POP PUSH2 0xD38 DUP3 PUSH2 0xF6B JUMP JUMPDEST PUSH1 0x20 DUP3 ADD SWAP1 POP SWAP2 SWAP1 POP JUMP JUMPDEST PUSH2 0xD4C DUP2 PUSH2 0xEA6 JUMP JUMPDEST DUP3 MSTORE POP POP JUMP JUMPDEST PUSH1 0x0 PUSH1 0x20 DUP3 ADD SWAP1 POP DUP2 DUP2 SUB PUSH1 0x0 DUP4 ADD MSTORE PUSH2 0xD6B DUP2 PUSH2 0xCFD JUMP JUMPDEST SWAP1 POP SWAP2 SWAP1 POP JUMP JUMPDEST PUSH1 0x0 PUSH1 0x20 DUP3 ADD SWAP1 POP DUP2 DUP2 SUB PUSH1 0x0 DUP4 ADD MSTORE PUSH2 0xD8B DUP2 PUSH2 0xD20 JUMP JUMPDEST SWAP1 POP SWAP2 SWAP1 POP JUMP JUMPDEST PUSH1 0x0 PUSH1 0x20 DUP3 ADD SWAP1 POP PUSH2 0xDA7 PUSH1 0x0 DUP4 ADD DUP5 PUSH2 0xD43 JUMP JUMPDEST SWAP3 SWAP2 POP POP JUMP JUMPDEST PUSH1 0x0 PUSH1 0x40 DUP3 ADD SWAP1 POP PUSH2 0xDC2 PUSH1 0x0 DUP4 ADD DUP6 PUSH2 0xD43 JUMP JUMPDEST PUSH2 0xDCF PUSH1 0x20 DUP4 ADD DUP5 PUSH2 0xD43 JUMP JUMPDEST SWAP4 SWAP3 POP POP POP JUMP JUMPDEST PUSH1 0x0 DUP3 DUP3 MSTORE PUSH1 0x20 DUP3 ADD SWAP1 POP SWAP3 SWAP2 POP POP JUMP JUMPDEST PUSH1 0x0 PUSH2 0xDF2 DUP3 PUSH2 0xEA6 JUMP JUMPDEST SWAP2 POP PUSH2 0xDFD DUP4 PUSH2 0xEA6 JUMP JUMPDEST SWAP3 POP DUP3 PUSH2 0xE0D JUMPI PUSH2 0xE0C PUSH2 0xEDF JUMP JUMPDEST JUMPDEST DUP3 DUP3 DIV SWAP1 POP SWAP3 SWAP2 POP POP JUMP JUMPDEST PUSH1 0x0 PUSH2 0xE23 DUP3 PUSH2 0xEA6 JUMP JUMPDEST SWAP2 POP PUSH2 0xE2E DUP4 PUSH2 0xEA6 JUMP JUMPDEST SWAP3 POP DUP2 PUSH32 0xFFFFFFFFFFFFFFFFFFFFFFFFFFFFFFFFFFFFFFFFFFFFFFFFFFFFFFFFFFFFFFFF DIV DUP4 GT DUP3 ISZERO ISZERO AND ISZERO PUSH2 0xE67 JUMPI PUSH2 0xE66 PUSH2 0xEB0 JUMP JUMPDEST JUMPDEST DUP3 DUP3 MUL SWAP1 POP SWAP3 SWAP2 POP POP JUMP JUMPDEST PUSH1 0x0 PUSH2 0xE7D DUP3 PUSH2 0xEA6 JUMP JUMPDEST SWAP2 POP PUSH2 0xE88 DUP4 PUSH2 0xEA6 JUMP JUMPDEST SWAP3 POP DUP3 DUP3 LT ISZERO PUSH2 0xE9B JUMPI PUSH2 0xE9A PUSH2 0xEB0 JUMP JUMPDEST JUMPDEST DUP3 DUP3 SUB SWAP1 POP SWAP3 SWAP2 POP POP JUMP JUMPDEST PUSH1 0x0 DUP2 SWAP1 POP SWAP2 SWAP1 POP JUMP JUMPDEST PUSH32 0x4E487B7100000000000000000000000000000000000000000000000000000000 PUSH1 0x0 MSTORE PUSH1 0x11 PUSH1 0x4 MSTORE PUSH1 0x24 PUSH1 0x0 REVERT JUMPDEST PUSH32 0x4E487B7100000000000000000000000000000000000000000000000000000000 PUSH1 0x0 MSTORE PUSH1 0x12 PUSH1 0x4 MSTORE PUSH1 0x24 PUSH1 0x0 REVERT JUMPDEST PUSH32 0x4E487B7100000000000000000000000000000000000000000000000000000000 PUSH1 0x0 MSTORE PUSH1 0x32 PUSH1 0x4 MSTORE PUSH1 0x24 PUSH1 0x0 REVERT JUMPDEST PUSH1 0x0 DUP1 REVERT JUMPDEST PUSH32 0x557365206A6163446F75626C652066756E6374696F6E20696E73746561640000 PUSH1 0x0 DUP3 ADD MSTORE POP JUMP JUMPDEST PUSH32 0x496E76616C6964206E756D626572000000000000000000000000000000000000 PUSH1 0x0 DUP3 ADD MSTORE POP JUMP JUMPDEST PUSH2 0xF9D DUP2 PUSH2 0xEA6 JUMP JUMPDEST DUP2 EQ PUSH2 0xFA8 JUMPI PUSH1 0x0 DUP1 REVERT JUMPDEST POP JUMP INVALID LOG2 PUSH5 0x6970667358 0x22 SLT KECCAK256 PUSH32 0x48718648DB3D3BC3C7C7BAAB5FF53BF8A4B29C5A9FEF3368B46B92D61979D564 PUSH20 0x6F6C634300080700330000000000000000000000 "
		},
		"gasEstimates": {
			"creation": {
				"codeDepositCost": "813000",
				"executionCost": "851",
				"totalCost": "813851"
			},
			"external": {
				"AA()": "373",
				"BB()": "329",
				"GX()": "307",
				"GY()": "351",
				"PP()": "417",
				"derivePubKey(uint256)": "infinite"
			}
		},
		"methodIdentifiers": {
			"AA()": "997da8d4",
			"BB()": "5727dc5c",
			"GX()": "03a507be",
			"GY()": "7a308a4c",
			"PP()": "eeeac01e",
			"derivePubKey(uint256)": "bc9e2bcf"
		}
	},
	"abi": [
		{
			"inputs": [],
			"name": "AA",
			"outputs": [
				{
					"internalType": "uint256",
					"name": "",
					"type": "uint256"
				}
			],
			"stateMutability": "view",
			"type": "function"
		},
		{
			"inputs": [],
			"name": "BB",
			"outputs": [
				{
					"internalType": "uint256",
					"name": "",
					"type": "uint256"
				}
			],
			"stateMutability": "view",
			"type": "function"
		},
		{
			"inputs": [],
			"name": "GX",
			"outputs": [
				{
					"internalType": "uint256",
					"name": "",
					"type": "uint256"
				}
			],
			"stateMutability": "view",
			"type": "function"
		},
		{
			"inputs": [],
			"name": "GY",
			"outputs": [
				{
					"internalType": "uint256",
					"name": "",
					"type": "uint256"
				}
			],
			"stateMutability": "view",
			"type": "function"
		},
		{
			"inputs": [],
			"name": "PP",
			"outputs": [
				{
					"internalType": "uint256",
					"name": "",
					"type": "uint256"
				}
			],
			"stateMutability": "view",
			"type": "function"
		},
		{
			"inputs": [
				{
					"internalType": "uint256",
					"name": "privKey",
					"type": "uint256"
				}
			],
			"name": "derivePubKey",
			"outputs": [
				{
					"internalType": "uint256",
					"name": "",
					"type": "uint256"
				},
				{
					"internalType": "uint256",
					"name": "",
					"type": "uint256"
				}
			],
			"stateMutability": "pure",
			"type": "function"
		}
	]
}